{
  "contractName": "shreekaraCoin",
  "abi": [
    {
      "inputs": [
        {
          "internalType": "string",
          "name": "_name",
          "type": "string"
        },
        {
          "internalType": "string",
          "name": "_symbol",
          "type": "string"
        },
        {
          "internalType": "uint256",
          "name": "_stack",
          "type": "uint256"
        }
      ],
      "stateMutability": "nonpayable",
      "type": "constructor"
    },
    {
      "anonymous": false,
      "inputs": [
        {
          "indexed": true,
          "internalType": "address",
          "name": "owner",
          "type": "address"
        },
        {
          "indexed": true,
          "internalType": "address",
          "name": "spender",
          "type": "address"
        },
        {
          "indexed": false,
          "internalType": "uint256",
          "name": "value",
          "type": "uint256"
        }
      ],
      "name": "Approval",
      "type": "event"
    },
    {
      "anonymous": false,
      "inputs": [
        {
          "indexed": true,
          "internalType": "address",
          "name": "from",
          "type": "address"
        },
        {
          "indexed": true,
          "internalType": "address",
          "name": "to",
          "type": "address"
        },
        {
          "indexed": false,
          "internalType": "uint256",
          "name": "value",
          "type": "uint256"
        }
      ],
      "name": "Transfer",
      "type": "event"
    },
    {
      "inputs": [],
      "name": "admin",
      "outputs": [
        {
          "internalType": "address",
          "name": "",
          "type": "address"
        }
      ],
      "stateMutability": "view",
      "type": "function",
      "constant": true
    },
    {
      "inputs": [
        {
          "internalType": "address",
          "name": "owner",
          "type": "address"
        },
        {
          "internalType": "address",
          "name": "spender",
          "type": "address"
        }
      ],
      "name": "allowance",
      "outputs": [
        {
          "internalType": "uint256",
          "name": "",
          "type": "uint256"
        }
      ],
      "stateMutability": "view",
      "type": "function",
      "constant": true
    },
    {
      "inputs": [
        {
          "internalType": "address",
          "name": "spender",
          "type": "address"
        },
        {
          "internalType": "uint256",
          "name": "amount",
          "type": "uint256"
        }
      ],
      "name": "approve",
      "outputs": [
        {
          "internalType": "bool",
          "name": "",
          "type": "bool"
        }
      ],
      "stateMutability": "nonpayable",
      "type": "function"
    },
    {
      "inputs": [
        {
          "internalType": "address",
          "name": "account",
          "type": "address"
        }
      ],
      "name": "balanceOf",
      "outputs": [
        {
          "internalType": "uint256",
          "name": "",
          "type": "uint256"
        }
      ],
      "stateMutability": "view",
      "type": "function",
      "constant": true
    },
    {
      "inputs": [],
      "name": "decimals",
      "outputs": [
        {
          "internalType": "uint8",
          "name": "",
          "type": "uint8"
        }
      ],
      "stateMutability": "view",
      "type": "function",
      "constant": true
    },
    {
      "inputs": [
        {
          "internalType": "address",
          "name": "spender",
          "type": "address"
        },
        {
          "internalType": "uint256",
          "name": "subtractedValue",
          "type": "uint256"
        }
      ],
      "name": "decreaseAllowance",
      "outputs": [
        {
          "internalType": "bool",
          "name": "",
          "type": "bool"
        }
      ],
      "stateMutability": "nonpayable",
      "type": "function"
    },
    {
      "inputs": [
        {
          "internalType": "address",
          "name": "spender",
          "type": "address"
        },
        {
          "internalType": "uint256",
          "name": "addedValue",
          "type": "uint256"
        }
      ],
      "name": "increaseAllowance",
      "outputs": [
        {
          "internalType": "bool",
          "name": "",
          "type": "bool"
        }
      ],
      "stateMutability": "nonpayable",
      "type": "function"
    },
    {
      "inputs": [],
      "name": "name",
      "outputs": [
        {
          "internalType": "string",
          "name": "",
          "type": "string"
        }
      ],
      "stateMutability": "view",
      "type": "function",
      "constant": true
    },
    {
      "inputs": [],
      "name": "stack",
      "outputs": [
        {
          "internalType": "uint256",
          "name": "",
          "type": "uint256"
        }
      ],
      "stateMutability": "view",
      "type": "function",
      "constant": true
    },
    {
      "inputs": [],
      "name": "symbol",
      "outputs": [
        {
          "internalType": "string",
          "name": "",
          "type": "string"
        }
      ],
      "stateMutability": "view",
      "type": "function",
      "constant": true
    },
    {
      "inputs": [],
      "name": "totalSupply",
      "outputs": [
        {
          "internalType": "uint256",
          "name": "",
          "type": "uint256"
        }
      ],
      "stateMutability": "view",
      "type": "function",
      "constant": true
    },
    {
      "inputs": [
        {
          "internalType": "address",
          "name": "recipient",
          "type": "address"
        },
        {
          "internalType": "uint256",
          "name": "amount",
          "type": "uint256"
        }
      ],
      "name": "transfer",
      "outputs": [
        {
          "internalType": "bool",
          "name": "",
          "type": "bool"
        }
      ],
      "stateMutability": "nonpayable",
      "type": "function"
    },
    {
      "inputs": [
        {
          "internalType": "address",
          "name": "sender",
          "type": "address"
        },
        {
          "internalType": "address",
          "name": "recipient",
          "type": "address"
        },
        {
          "internalType": "uint256",
          "name": "amount",
          "type": "uint256"
        }
      ],
      "name": "transferFrom",
      "outputs": [
        {
          "internalType": "bool",
          "name": "",
          "type": "bool"
        }
      ],
      "stateMutability": "nonpayable",
      "type": "function"
    }
  ],
  "bytecode": "0x60806040523480156200001157600080fd5b5060405162001bb238038062001bb2833981810160405281019062000037919062000504565b82828160039080519060200190620000519291906200027c565b5080600490805190602001906200006a9291906200027c565b50505033600560006101000a81548173ffffffffffffffffffffffffffffffffffffffff021916908373ffffffffffffffffffffffffffffffffffffffff160217905550620000e9600560009054906101000a900473ffffffffffffffffffffffffffffffffffffffff1666038d7ea4c68000620000f960201b60201c565b8060068190555050505062000740565b600073ffffffffffffffffffffffffffffffffffffffff168273ffffffffffffffffffffffffffffffffffffffff1614156200016c576040517f08c379a00000000000000000000000000000000000000000000000000000000081526004016200016390620005ff565b60405180910390fd5b62000180600083836200027260201b60201c565b806002600082825462000194919062000650565b92505081905550806000808473ffffffffffffffffffffffffffffffffffffffff1673ffffffffffffffffffffffffffffffffffffffff1681526020019081526020016000206000828254620001eb919062000650565b925050819055508173ffffffffffffffffffffffffffffffffffffffff16600073ffffffffffffffffffffffffffffffffffffffff167fddf252ad1be2c89b69c2b068fc378daa952ba7f163c4a11628f55a4df523b3ef83604051620002529190620006be565b60405180910390a36200026e600083836200027760201b60201c565b5050565b505050565b505050565b8280546200028a906200070a565b90600052602060002090601f016020900481019282620002ae5760008555620002fa565b82601f10620002c957805160ff1916838001178555620002fa565b82800160010185558215620002fa579182015b82811115620002f9578251825591602001919060010190620002dc565b5b5090506200030991906200030d565b5090565b5b80821115620003285760008160009055506001016200030e565b5090565b6000604051905090565b600080fd5b600080fd5b600080fd5b600080fd5b6000601f19601f8301169050919050565b7f4e487b7100000000000000000000000000000000000000000000000000000000600052604160045260246000fd5b62000395826200034a565b810181811067ffffffffffffffff82111715620003b757620003b66200035b565b5b80604052505050565b6000620003cc6200032c565b9050620003da82826200038a565b919050565b600067ffffffffffffffff821115620003fd57620003fc6200035b565b5b62000408826200034a565b9050602081019050919050565b60005b838110156200043557808201518184015260208101905062000418565b8381111562000445576000848401525b50505050565b6000620004626200045c84620003df565b620003c0565b90508281526020810184848401111562000481576200048062000345565b5b6200048e84828562000415565b509392505050565b600082601f830112620004ae57620004ad62000340565b5b8151620004c08482602086016200044b565b91505092915050565b6000819050919050565b620004de81620004c9565b8114620004ea57600080fd5b50565b600081519050620004fe81620004d3565b92915050565b60008060006060848603121562000520576200051f62000336565b5b600084015167ffffffffffffffff8111156200054157620005406200033b565b5b6200054f8682870162000496565b935050602084015167ffffffffffffffff8111156200057357620005726200033b565b5b620005818682870162000496565b92505060406200059486828701620004ed565b9150509250925092565b600082825260208201905092915050565b7f45524332303a206d696e7420746f20746865207a65726f206164647265737300600082015250565b6000620005e7601f836200059e565b9150620005f482620005af565b602082019050919050565b600060208201905081810360008301526200061a81620005d8565b9050919050565b7f4e487b7100000000000000000000000000000000000000000000000000000000600052601160045260246000fd5b60006200065d82620004c9565b91506200066a83620004c9565b9250827fffffffffffffffffffffffffffffffffffffffffffffffffffffffffffffffff03821115620006a257620006a162000621565b5b828201905092915050565b620006b881620004c9565b82525050565b6000602082019050620006d56000830184620006ad565b92915050565b7f4e487b7100000000000000000000000000000000000000000000000000000000600052602260045260246000fd5b600060028204905060018216806200072357607f821691505b602082108114156200073a5762000739620006db565b5b50919050565b61146280620007506000396000f3fe608060405234801561001057600080fd5b50600436106100cf5760003560e01c8063395093511161008c578063a457c2d711610066578063a457c2d71461022a578063a9059cbb1461025a578063dd62ed3e1461028a578063f851a440146102ba576100cf565b806339509351146101ac57806370a08231146101dc57806395d89b411461020c576100cf565b806306fdde03146100d4578063095ea7b3146100f2578063138ef1511461012257806318160ddd1461014057806323b872dd1461015e578063313ce5671461018e575b600080fd5b6100dc6102d8565b6040516100e99190610ccc565b60405180910390f35b61010c60048036038101906101079190610d87565b61036a565b6040516101199190610de2565b60405180910390f35b61012a610388565b6040516101379190610e0c565b60405180910390f35b61014861038e565b6040516101559190610e0c565b60405180910390f35b61017860048036038101906101739190610e27565b610398565b6040516101859190610de2565b60405180910390f35b610196610490565b6040516101a39190610e96565b60405180910390f35b6101c660048036038101906101c19190610d87565b610499565b6040516101d39190610de2565b60405180910390f35b6101f660048036038101906101f19190610eb1565b610545565b6040516102039190610e0c565b60405180910390f35b61021461058d565b6040516102219190610ccc565b60405180910390f35b610244600480360381019061023f9190610d87565b61061f565b6040516102519190610de2565b60405180910390f35b610274600480360381019061026f9190610d87565b61070a565b6040516102819190610de2565b60405180910390f35b6102a4600480360381019061029f9190610ede565b610728565b6040516102b19190610e0c565b60405180910390f35b6102c26107af565b6040516102cf9190610f2d565b60405180910390f35b6060600380546102e790610f77565b80601f016020809104026020016040519081016040528092919081815260200182805461031390610f77565b80156103605780601f1061033557610100808354040283529160200191610360565b820191906000526020600020905b81548152906001019060200180831161034357829003601f168201915b5050505050905090565b600061037e6103776107d5565b84846107dd565b6001905092915050565b60065481565b6000600254905090565b60006103a58484846109a8565b6000600160008673ffffffffffffffffffffffffffffffffffffffff1673ffffffffffffffffffffffffffffffffffffffff16815260200190815260200160002060006103f06107d5565b73ffffffffffffffffffffffffffffffffffffffff1673ffffffffffffffffffffffffffffffffffffffff16815260200190815260200160002054905082811015610470576040517f08c379a00000000000000000000000000000000000000000000000000000000081526004016104679061101b565b60405180910390fd5b6104848561047c6107d5565b8584036107dd565b60019150509392505050565b60006012905090565b600061053b6104a66107d5565b8484600160006104b46107d5565b73ffffffffffffffffffffffffffffffffffffffff1673ffffffffffffffffffffffffffffffffffffffff16815260200190815260200160002060008873ffffffffffffffffffffffffffffffffffffffff1673ffffffffffffffffffffffffffffffffffffffff16815260200190815260200160002054610536919061106a565b6107dd565b6001905092915050565b60008060008373ffffffffffffffffffffffffffffffffffffffff1673ffffffffffffffffffffffffffffffffffffffff168152602001908152602001600020549050919050565b60606004805461059c90610f77565b80601f01602080910402602001604051908101604052809291908181526020018280546105c890610f77565b80156106155780601f106105ea57610100808354040283529160200191610615565b820191906000526020600020905b8154815290600101906020018083116105f857829003601f168201915b5050505050905090565b6000806001600061062e6107d5565b73ffffffffffffffffffffffffffffffffffffffff1673ffffffffffffffffffffffffffffffffffffffff16815260200190815260200160002060008573ffffffffffffffffffffffffffffffffffffffff1673ffffffffffffffffffffffffffffffffffffffff168152602001908152602001600020549050828110156106eb576040517f08c379a00000000000000000000000000000000000000000000000000000000081526004016106e290611132565b60405180910390fd5b6106ff6106f66107d5565b858584036107dd565b600191505092915050565b600061071e6107176107d5565b84846109a8565b6001905092915050565b6000600160008473ffffffffffffffffffffffffffffffffffffffff1673ffffffffffffffffffffffffffffffffffffffff16815260200190815260200160002060008373ffffffffffffffffffffffffffffffffffffffff1673ffffffffffffffffffffffffffffffffffffffff16815260200190815260200160002054905092915050565b600560009054906101000a900473ffffffffffffffffffffffffffffffffffffffff1681565b600033905090565b600073ffffffffffffffffffffffffffffffffffffffff168373ffffffffffffffffffffffffffffffffffffffff16141561084d576040517f08c379a0000000000000000000000000000000000000000000000000000000008152600401610844906111c4565b60405180910390fd5b600073ffffffffffffffffffffffffffffffffffffffff168273ffffffffffffffffffffffffffffffffffffffff1614156108bd576040517f08c379a00000000000000000000000000000000000000000000000000000000081526004016108b490611256565b60405180910390fd5b80600160008573ffffffffffffffffffffffffffffffffffffffff1673ffffffffffffffffffffffffffffffffffffffff16815260200190815260200160002060008473ffffffffffffffffffffffffffffffffffffffff1673ffffffffffffffffffffffffffffffffffffffff168152602001908152602001600020819055508173ffffffffffffffffffffffffffffffffffffffff168373ffffffffffffffffffffffffffffffffffffffff167f8c5be1e5ebec7d5bd14f71427d1e84f3dd0314c0f7b2291e5b200ac8c7c3b9258360405161099b9190610e0c565b60405180910390a3505050565b600073ffffffffffffffffffffffffffffffffffffffff168373ffffffffffffffffffffffffffffffffffffffff161415610a18576040517f08c379a0000000000000000000000000000000000000000000000000000000008152600401610a0f906112e8565b60405180910390fd5b600073ffffffffffffffffffffffffffffffffffffffff168273ffffffffffffffffffffffffffffffffffffffff161415610a88576040517f08c379a0000000000000000000000000000000000000000000000000000000008152600401610a7f9061137a565b60405180910390fd5b610a93838383610c29565b60008060008573ffffffffffffffffffffffffffffffffffffffff1673ffffffffffffffffffffffffffffffffffffffff16815260200190815260200160002054905081811015610b19576040517f08c379a0000000000000000000000000000000000000000000000000000000008152600401610b109061140c565b60405180910390fd5b8181036000808673ffffffffffffffffffffffffffffffffffffffff1673ffffffffffffffffffffffffffffffffffffffff16815260200190815260200160002081905550816000808573ffffffffffffffffffffffffffffffffffffffff1673ffffffffffffffffffffffffffffffffffffffff1681526020019081526020016000206000828254610bac919061106a565b925050819055508273ffffffffffffffffffffffffffffffffffffffff168473ffffffffffffffffffffffffffffffffffffffff167fddf252ad1be2c89b69c2b068fc378daa952ba7f163c4a11628f55a4df523b3ef84604051610c109190610e0c565b60405180910390a3610c23848484610c2e565b50505050565b505050565b505050565b600081519050919050565b600082825260208201905092915050565b60005b83811015610c6d578082015181840152602081019050610c52565b83811115610c7c576000848401525b50505050565b6000601f19601f8301169050919050565b6000610c9e82610c33565b610ca88185610c3e565b9350610cb8818560208601610c4f565b610cc181610c82565b840191505092915050565b60006020820190508181036000830152610ce68184610c93565b905092915050565b600080fd5b600073ffffffffffffffffffffffffffffffffffffffff82169050919050565b6000610d1e82610cf3565b9050919050565b610d2e81610d13565b8114610d3957600080fd5b50565b600081359050610d4b81610d25565b92915050565b6000819050919050565b610d6481610d51565b8114610d6f57600080fd5b50565b600081359050610d8181610d5b565b92915050565b60008060408385031215610d9e57610d9d610cee565b5b6000610dac85828601610d3c565b9250506020610dbd85828601610d72565b9150509250929050565b60008115159050919050565b610ddc81610dc7565b82525050565b6000602082019050610df76000830184610dd3565b92915050565b610e0681610d51565b82525050565b6000602082019050610e216000830184610dfd565b92915050565b600080600060608486031215610e4057610e3f610cee565b5b6000610e4e86828701610d3c565b9350506020610e5f86828701610d3c565b9250506040610e7086828701610d72565b9150509250925092565b600060ff82169050919050565b610e9081610e7a565b82525050565b6000602082019050610eab6000830184610e87565b92915050565b600060208284031215610ec757610ec6610cee565b5b6000610ed584828501610d3c565b91505092915050565b60008060408385031215610ef557610ef4610cee565b5b6000610f0385828601610d3c565b9250506020610f1485828601610d3c565b9150509250929050565b610f2781610d13565b82525050565b6000602082019050610f426000830184610f1e565b92915050565b7f4e487b7100000000000000000000000000000000000000000000000000000000600052602260045260246000fd5b60006002820490506001821680610f8f57607f821691505b60208210811415610fa357610fa2610f48565b5b50919050565b7f45524332303a207472616e7366657220616d6f756e742065786365656473206160008201527f6c6c6f77616e6365000000000000000000000000000000000000000000000000602082015250565b6000611005602883610c3e565b915061101082610fa9565b604082019050919050565b6000602082019050818103600083015261103481610ff8565b9050919050565b7f4e487b7100000000000000000000000000000000000000000000000000000000600052601160045260246000fd5b600061107582610d51565b915061108083610d51565b9250827fffffffffffffffffffffffffffffffffffffffffffffffffffffffffffffffff038211156110b5576110b461103b565b5b828201905092915050565b7f45524332303a2064656372656173656420616c6c6f77616e63652062656c6f7760008201527f207a65726f000000000000000000000000000000000000000000000000000000602082015250565b600061111c602583610c3e565b9150611127826110c0565b604082019050919050565b6000602082019050818103600083015261114b8161110f565b9050919050565b7f45524332303a20617070726f76652066726f6d20746865207a65726f2061646460008201527f7265737300000000000000000000000000000000000000000000000000000000602082015250565b60006111ae602483610c3e565b91506111b982611152565b604082019050919050565b600060208201905081810360008301526111dd816111a1565b9050919050565b7f45524332303a20617070726f766520746f20746865207a65726f20616464726560008201527f7373000000000000000000000000000000000000000000000000000000000000602082015250565b6000611240602283610c3e565b915061124b826111e4565b604082019050919050565b6000602082019050818103600083015261126f81611233565b9050919050565b7f45524332303a207472616e736665722066726f6d20746865207a65726f20616460008201527f6472657373000000000000000000000000000000000000000000000000000000602082015250565b60006112d2602583610c3e565b91506112dd82611276565b604082019050919050565b60006020820190508181036000830152611301816112c5565b9050919050565b7f45524332303a207472616e7366657220746f20746865207a65726f206164647260008201527f6573730000000000000000000000000000000000000000000000000000000000602082015250565b6000611364602383610c3e565b915061136f82611308565b604082019050919050565b6000602082019050818103600083015261139381611357565b9050919050565b7f45524332303a207472616e7366657220616d6f756e742065786365656473206260008201527f616c616e63650000000000000000000000000000000000000000000000000000602082015250565b60006113f6602683610c3e565b91506114018261139a565b604082019050919050565b60006020820190508181036000830152611425816113e9565b905091905056fea2646970667358221220a414b24a0ba072f3f8accc069ed99b1b9132b9dfae1fbccf4d91e90c503c00e964736f6c63430008090033",
  "immutableReferences": {},
  "source": "// SPDX-License-Identifier: MIT\npragma solidity 0.8.9;\n\nimport \"@openzeppelin/contracts/token/ERC20/ERC20.sol\";\n\ncontract shreekaraCoin is ERC20 {\n    address public admin;\n    uint public stack;\n    \n    constructor(string memory _name, string memory _symbol, uint _stack) ERC20(_name, _symbol){\n        admin = msg.sender;\n        _mint(admin, 100000e10);\n        stack = _stack;\n    }\n}\n",
  "sourcePath": "/Users/shreekara/Desktop/blockchain/shreekara/contracts/LonghornCoin.sol",
  "compiler": {
    "name": "solc",
    "version": "0.8.9+commit.e5eed63a.Emscripten.clang"
  },
  "schemaVersion": "3.4.3",
  "updatedAt": "2021-10-22T02:09:35.014Z",
  "networkType": "ethereum",
  "devdoc": {
    "kind": "dev",
    "methods": {
      "allowance(address,address)": {
        "details": "See {IERC20-allowance}."
      },
      "approve(address,uint256)": {
        "details": "See {IERC20-approve}. Requirements: - `spender` cannot be the zero address."
      },
      "balanceOf(address)": {
        "details": "See {IERC20-balanceOf}."
      },
      "decimals()": {
        "details": "Returns the number of decimals used to get its user representation. For example, if `decimals` equals `2`, a balance of `505` tokens should be displayed to a user as `5.05` (`505 / 10 ** 2`). Tokens usually opt for a value of 18, imitating the relationship between Ether and Wei. This is the value {ERC20} uses, unless this function is overridden; NOTE: This information is only used for _display_ purposes: it in no way affects any of the arithmetic of the contract, including {IERC20-balanceOf} and {IERC20-transfer}."
      },
      "decreaseAllowance(address,uint256)": {
        "details": "Atomically decreases the allowance granted to `spender` by the caller. This is an alternative to {approve} that can be used as a mitigation for problems described in {IERC20-approve}. Emits an {Approval} event indicating the updated allowance. Requirements: - `spender` cannot be the zero address. - `spender` must have allowance for the caller of at least `subtractedValue`."
      },
      "increaseAllowance(address,uint256)": {
        "details": "Atomically increases the allowance granted to `spender` by the caller. This is an alternative to {approve} that can be used as a mitigation for problems described in {IERC20-approve}. Emits an {Approval} event indicating the updated allowance. Requirements: - `spender` cannot be the zero address."
      },
      "name()": {
        "details": "Returns the name of the token."
      },
      "symbol()": {
        "details": "Returns the symbol of the token, usually a shorter version of the name."
      },
      "totalSupply()": {
        "details": "See {IERC20-totalSupply}."
      },
      "transfer(address,uint256)": {
        "details": "See {IERC20-transfer}. Requirements: - `recipient` cannot be the zero address. - the caller must have a balance of at least `amount`."
      },
      "transferFrom(address,address,uint256)": {
        "details": "See {IERC20-transferFrom}. Emits an {Approval} event indicating the updated allowance. This is not required by the EIP. See the note at the beginning of {ERC20}. Requirements: - `sender` and `recipient` cannot be the zero address. - `sender` must have a balance of at least `amount`. - the caller must have allowance for ``sender``'s tokens of at least `amount`."
      }
    },
    "version": 1
  },
  "userdoc": {
    "kind": "user",
    "methods": {},
    "version": 1
  }
}